:1000000051015128316631A6110A11104062801445
:10001000B40C02D322B40D02C322D007D007D007FC
:10002000D00780E25128755600904000E020E7316B
:10003000315CC0E0E5F02480F553D0E0315CC0E0F5
:10004000E5F02440F554D0E02420F555E55311693E
:10005000E5541169E5551169E55611697590EF8010
:10006000C3F4240175561A80C7900000F0512D2268
:10007000754D00512879407A0331A631BFF7511BE5
:1000800009DAF6318231BF511B7A0331A631BFF74D
:10009000511B09DAF631A6B40BFB31BF511B11B865
:1000A00011A77590EF80FE794DE7511B794EE7243B
:1000B00030511B09B951F722E546B4FF30E54254EF
:1000C0000F8545F053F00F25F0315C85F050254148
:1000D00024D0254424D0315C85F04F254024D02500
:1000E0004324D0315C85F04E2430F54D22E5408527
:1000F00043F0B5F041E5418544F0B5F03DE542857A
:1001000045F0B5F039E5428545F0C2D795F030E7C6
:1001100004240AD2D7F550E5418544F095F030E744
:1001200004240AD2D7F54FE5408543F095F030E737
:0601300002240AF54E2234
:1001360050CD800650C9800250C550C3E540794372
:10014600C7F540E5417944C7F541E5427945C7F52C
:1001560042754D2D80A975F00A84F55185F052221D
:100166007E00900174EE93511B0EB400F5224D4FA4
:10017600492043484F4E204D4F44450031A6318A11
:1001860040128016B40E02C322B40F02D322D00747
:10019600D00780E8740F7546FF22740E754600225C
:1001A60075323231C440F9D532F9F5337532323110
:1001B600C450F9D532F9E533229001F19322753016
:1001C600007531EF8531905140E590540FB40F1012
:1001D600E5302404F530E53123F531B4FEE6D322CB
:1001E600135004053080F9E530C3223734314F38D7
:1001F6003532303936333D41422D2B7438510E7429
:1002060006510E740E510E22901000F0D2B4C2B5F3
:10021600C2B4512D22901000F0D2B4D2B5C2B4515E
:100226002D227401510E22758901758CF8758A305C
:10023600D28C308DFDC28CC28D22758901758CFFE2
:0D024600758ACED28C308DFDC28CC28D2207
:00000001FF
